:020000040800F2
:1000000000000220B5C300086DBD00087BBD0008DC
:1000100081BD000887BD00088DBD000800000000FC
:1000200000000000000000000000000093BD000878
:10003000A1BD000800000000AFBD0008BDBD000864
:1000400005C4000805C4000805C4000805C400086C
:1000500005C4000805C4000805C4000805C400085C
:1000600005C4000805C4000805C40008CDBD00088B
:1000700005C4000805C40008E1BD0008F5BD00087E
:1000800009BE000805C400081DBE000805C400081C
:1000900005C4000805C4000805C4000805C400081C
:1000A00005C4000805C4000805C4000805C400080C
:1000B00045BE000859BE000805C400086DBE000812
:1000C00081BE000895BE0008A9BE000805C400084E
:1000D000BDBE000805C4000805C4000805C400082A
:1000E00005C4000805C4000805C4000805C40008CC
:1000F000D1BE0008E5BE000805C4000805C400081C
:1001000005C4000805C4000805C4000805C40008AB
:1001100005C4000805C4000805C4000805C400089B
:1001200001BF000815BF000805C4000805C4000889
:1001300005C40008000000000000000005C400081D
:1001400005C4000805C4000805C4000805C400086B
:1001500005C4000805C4000805C4000805C400085B
:1001600029BF00083DBF000805C4000805C40008F9
:1001700005C4000805C4000805C40008000000000C
:100180000000000005C4000800000000000000009E
:1001900005C40008000000000000000005C40008BD
:1001A00000000000000000000000000005C400087E
:1001B00005C4000805C4000805C4000805C40008FB
:0401C00005C400086A
:1001D00010B5054C237833B9044B13B10448AFF381
:1001E00000800123237010BDF001002000000000FA
:1001F00004F7000808B5034B1BB103490348AFF3EC
:10020000008008BD00000000F401002004F7000891
:1002100081F0004102E000BF83F0004330B54FEAB7
:1002200041044FEA430594EA050F08BF90EA020F24
:100230001FBF54EA000C55EA020C7FEA645C7FEAB7
:10024000655C00F0E2804FEA5454D4EB5555B8BFDA
:100250006D420CDD2C4480EA020281EA030382EA4B
:10026000000083EA010180EA020281EA0303362DDD
:1002700088BF30BD11F0004F4FEA01314FF4801CB0
:100280004CEA113102D0404261EB410113F0004FC2
:100290004FEA03334CEA133302D0524263EB430379
:1002A00094EA050F00F0A780A4F10104D5F1200E17
:1002B0000DDB02FA0EFC22FA05F2801841F1000172
:1002C00003FA0EF2801843FA05F359410EE0A5F146
:1002D00020050EF1200E012A03FA0EFC28BF4CF077
:1002E000020C43FA05F3C01851EBE37101F000452D
:1002F00007D54FF0000EDCF1000C7EEB00006EEB3A
:100300000101B1F5801F1BD3B1F5001F0CD34908C3
:100310005FEA30004FEA3C0C04F101044FEA44521A
:1003200012F5800F80F09A80BCF1004F08BF5FEAA1
:10033000500C50F1000041EB045141EA050130BD81
:100340005FEA4C0C404141EB010111F4801FA4F124
:100350000104E9D191F0000F04BF01460020B1FA79
:1003600081F308BF2033A3F10B03B3F120020CDAB1
:100370000C3208DD02F1140CC2F10C0201FA0CF08F
:1003800021FA02F10CE002F11402D8BFC2F1200CF4
:1003900001FA02F120FA0CFCDCBF41EA0C019040AA
:1003A000E41AA2BF01EB0451294330BD6FEA0404F3
:1003B0001F3C1CDA0C340EDC04F11404C4F12002DE
:1003C00020FA04F001FA02F340EA030021FA04F3F0
:1003D00045EA030130BDC4F10C04C4F1200220FA47
:1003E00002F001FA04F340EA0300294630BD21FA85
:1003F00004F0294630BD94F0000F83F4801306BF4B
:1004000081F480110134013D4EE77FEA645C18BF3E
:100410007FEA655C29D094EA050F08BF90EA020FD5
:1004200005D054EA000C04BF1946104630BD91EACD
:10043000030F1EBF0021002030BD5FEA545C05D1D0
:100440004000494128BF41F0004130BD14F580040F
:100450003CBF01F5801130BD01F0004545F0FE4183
:1004600041F470014FF0000030BD7FEA645C1ABFB8
:10047000194610467FEA655C1CBF0B46024650EAEF
:10048000013406BF52EA033591EA030F41F400211B
:1004900030BD00BF90F0000F04BF0021704730B5A1
:1004A0004FF4806404F132044FF000054FF0000176
:1004B00050E700BF90F0000F04BF0021704730B537
:1004C0004FF4806404F1320410F0004548BF40420C
:1004D0004FF000013EE700BF42004FEAE2014FEA61
:1004E00031014FEA02701FBF12F07F4393F07F4F3C
:1004F00081F06051704732F07F4208BF704793F03F
:100500007F4F04BF41F40021704730B54FF4607451
:1005100001F0004521F000411CE700BF50EA010254
:1005200008BF704730B54FF000050AE050EA0102FD
:1005300008BF704730B511F0004502D5404261EB6D
:1005400041014FF4806404F132045FEA915C3FF4AE
:10055000D8AE4FF003025FEADC0C18BF03325FEA4B
:10056000DC0C18BF033202EBDC02C2F1200300FAFC
:1005700003FC20FA02F001FA03FE40EA0E0021FA21
:1005800002F11444BDE600BF70B54FF0FF0C4CF40F
:10059000E06C1CEA11541DBF1CEA135594EA0C0FC1
:1005A00095EA0C0F00F0DEF82C4481EA030621EAFC
:1005B0004C5123EA4C5350EA013518BF52EA033537
:1005C00041F4801143F4801338D0A0FB02CE4FF0E9
:1005D0000005E1FB02E506F00042E0FB03E54FF019
:1005E0000006E1FB03569CF0000F18BF4EF0010E11
:1005F000A4F1FF04B6F5007F64F5407404D25FEA0D
:100600004E0E6D4146EB060642EAC62141EA5551BF
:100610004FEAC52040EA5E504FEACE2EB4F1FD0C01
:1006200088BFBCF5E06F1ED8BEF1004F08BF5FEA7F
:10063000500E50F1000041EB045170BD06F0004631
:1006400046EA010140EA020081EA0301B4EB5C04DE
:10065000C2BFD4EB0C0541EA045170BD41F48011D6
:100660004FF0000E013C00F3AB8014F1360FDEBFFB
:10067000002001F0004170BDC4F10004203C35DAD7
:100680000C341BDC04F11404C4F1200500FA05F35A
:1006900020FA04F001FA05F240EA020001F00042FB
:1006A00021F0004110EBD37021FA04F642EB060171
:1006B0005EEA430E08BF20EAD37070BDC4F10C049B
:1006C000C4F1200500FA04F320FA05F001FA04F25F
:1006D00040EA020001F0004110EBD37041F100014B
:1006E0005EEA430E08BF20EAD37070BDC4F1200556
:1006F00000FA05F24EEA020E20FA04F301FA05F2BE
:1007000043EA020321FA04F001F0004121FA04F265
:1007100020EA020000EBD3705EEA430E08BF20EA35
:10072000D37070BD94F0000F0FD101F0004640006F
:1007300041EB010111F4801F08BF013CF7D041EAF1
:10074000060195F0000F18BF704703F000465200F5
:1007500043EB030313F4801F08BF013DF7D043EAC6
:100760000603704794EA0C0F0CEA135518BF95EA7C
:100770000C0F0CD050EA410618BF52EA4306D1D103
:1007800081EA030101F000414FF0000070BD50EA22
:10079000410606BF1046194652EA430619D094EAAC
:1007A0000C0F02D150EA013613D195EA0C0F05D196
:1007B00052EA03361CBF104619460AD181EA0301EA
:1007C00001F0004141F0FE4141F470014FF00000A2
:1007D00070BD41F0FE4141F4780170BD70B54FF03D
:1007E000FF0C4CF4E06C1CEA11541DBF1CEA1355BD
:1007F00094EA0C0F95EA0C0F00F0A7F8A4EB05049F
:1008000081EA030E52EA03354FEA013100F0888095
:100810004FEA03334FF0805545EA131343EA12635E
:100820004FEA022245EA111545EA10654FEA002613
:100830000EF000419D4208BF964244F1FD0404F5CC
:10084000407402D25B084FEA3202B61A65EB030528
:100850005B084FEA32024FF480104FF4002CB6EBE5
:10086000020E75EB030E22BFB61A754640EA0C0065
:100870005B084FEA3202B6EB020E75EB030E22BFA5
:10088000B61A754640EA5C005B084FEA3202B6EBE6
:10089000020E75EB030E22BFB61A754640EA9C00A5
:1008A0005B084FEA3202B6EB020E75EB030E22BF75
:1008B000B61A754640EADC0055EA060E18D04FEA33
:1008C000051545EA16754FEA06164FEAC30343EAD3
:1008D00052734FEAC2025FEA1C1CC0D111F4801FA0
:1008E0000BD141EA00014FF000004FF0004CB6E799
:1008F00011F4801F04BF01430020B4F1FD0C88BF38
:10090000BCF5E06F3FF6AFAEB5EB030C04BFB6EB42
:10091000020C5FEA500C50F1000041EB045170BD35
:100920000EF0004E4EEA113114EB5C04C2BFD4EB62
:100930000C0541EA045170BD41F480114FF0000EE6
:10094000013C90E645EA060E8DE60CEA135594EA62
:100950000C0F08BF95EA0C0F3FF43BAF94EA0C0F65
:100960000AD150EA01347FF434AF95EA0C0F7FF4DA
:1009700025AF104619462CE795EA0C0F06D152EA2E
:1009800003353FF4FDAE1046194622E750EA410612
:1009900018BF52EA43067FF4C5AE50EA41047FF423
:1009A0000DAF52EA43057FF4EBAE12E74FF0FF3C88
:1009B00006E000BF4FF0010C02E000BF4FF0010C59
:1009C0004DF804CD4FEA410C7FEA6C5C4FEA430CD2
:1009D00018BF7FEA6C5C1BD001B050EA410C0CBF21
:1009E00052EA430C91EA030F02BF90EA020F002083
:1009F000704710F1000F91EA030F58BF994208BFEA
:100A000090422CBFD8176FEAE37040F001007047A6
:100A10004FEA410C7FEA6C5C02D150EA013C07D1FD
:100A20004FEA430C7FEA6C5CD6D152EA033CD3D048
:100A30005DF8040B704700BF8446104662468C4642
:100A40001946634600E000BF01B5FFF7B7FF002875
:100A500048BF10F1000F01BD4DF808EDFFF7F4FF9E
:100A60000CBF012000205DF808FB00BF4DF808ED29
:100A7000FFF7EAFF34BF012000205DF808FB00BF4C
:100A80004DF808EDFFF7E0FF94BF012000205DF86E
:100A900008FB00BF4DF808EDFFF7CEFF94BF012023
:100AA00000205DF808FB00BF4DF808EDFFF7C4FF1C
:100AB00034BF012000205DF808FB00BF4FEA410C65
:100AC0007FEA6C5C02D150EA013C0AD14FEA430C48
:100AD0007FEA6C5C02D152EA033C02D14FF0000085
:100AE00070474FF0010070474FEA410212F50012C3
:100AF00015D211D56FF47873B3EB625212D94FEA65
:100B0000C12343F0004343EA505311F0004F23FA4E
:100B100002F018BF404270474FF00000704750EAA3
:100B2000013005D111F0004008BF6FF00040704760
:100B30004FF00000704700BF53B94AB9002908BF01
:100B400000281CBF4FF0FF314FF0FF3000F072B9AA
:100B5000ADF1080C6DE904CE00F006F8DDF804E014
:100B6000DDE9022304B070472DE9F047089E0446F2
:100B70008846002B4BD18A42154667D9B2FA82F2D9
:100B80004AB1C2F1200701FA02F320FA07F79540B3
:100B900047EA030894404FEA154E230CB8FBFEF7D2
:100BA0001FFA85FC0EFB178843EA084307FB0CF18C
:100BB000994209D9EB1807F1FF3080F01B81994267
:100BC00040F21881023F2B445B1AA4B2B3FBFEF043
:100BD0000EFB103344EA034400FB0CFCA44509D986
:100BE0002C1900F1FF3380F00781A44540F2048105
:100BF00002382C4440EA0740A4EB0C0400271EB145
:100C0000D4400023C6E900433946BDE8F0878B4253
:100C100009D9002E00F0EB800027C6E90001384614
:100C20003946BDE8F087B3FA83F7002F47D18B42EE
:100C300002D3824200F2FA80841A61EB030301209E
:100C40009846002EE0D0C6E90048DDE702B9FFDE95
:100C5000B2FA82F2002A40F08F80491B4FEA154E0B
:100C60001FFA85F80127B1FBFEFC230C0EFB1C11BB
:100C700043EA014308FB0CF1994207D9EB180CF148
:100C8000FF3002D2994200F2CD808446591AA3B2B5
:100C9000B1FBFEF00EFB101443EA044408FB00F81D
:100CA000A04507D92C1900F1FF3302D2A04500F26C
:100CB000B6801846A4EB080440EA0C409FE7C7F151
:100CC000200CBB4022FA0CFE4EEA030E01FA07F498
:100CD00020FA0CF521FA0CF34FEA1E482543B3FB2A
:100CE000F8F92C0C08FB19331FFA8EFA44EA034377
:100CF00009FB0AF49C4202FA07F200FA07F10BD949
:100D00001EEB030309F1FF3080F087809C4240F224
:100D10008480A9F1020973441B1BADB2B3FBF8F048
:100D200008FB103345EA034400FB0AFAA24508D940
:100D30001EEB040400F1FF336BD2A24569D90238DF
:100D4000744440EA0940A0FB0289A4EB0A044C4524
:100D5000C2464B4654D351D0002E69D0B1EB0A05A0
:100D600064EB030404FA0CFCFD40FC404CEA05056E
:100D7000C6E90054002747E7C2F1200320FA03F731
:100D8000954001FA02F021FA03F34FEA154E384379
:100D9000010CB3FBFEF71FFA85F80EFB173341EA8F
:100DA000034107FB08F38B4204FA02F407D96918E0
:100DB00007F1FF3C2FD28B422DD9023F2944CB1A99
:100DC00081B2B3FBFEF00EFB103341EA034100FB9E
:100DD00008F38B4207D9691800F1FF3C17D28B4208
:100DE00015D902382944C91A40EA07473BE7374674
:100DF000304609E70746E7E61846FBE64145ABD231
:100E0000B8EB020A69EB0E0201381346A4E760460C
:100E1000E9E7184695E76746D1E781467CE702385F
:100E20002C4447E7ACF1020C2B442FE7384608E787
:100E30003746E9E6704700BF034613F8012B002A46
:100E4000FBD1181A013870470000000000000000B4
:100E500001F0FF01102A2BDB10F0070F08D010F86B
:100E6000013B013A8B422DD010F0070F42B3F6D16F
:100E7000F0B441EA012141EA014122F007047FF088
:100E800000070023F0E80256083C85EA010586EADF
:100E9000010685FA47F5A3FA87F586FA47F6A5FA1B
:100EA00087F68EB9EED1F0BC01F0FF0102F0070227
:100EB00032B110F8013B013A83EA010313B1F8D1D2
:100EC0000020704701387047002D06BF35460338B3
:100ED000073815F0010F07D1013015F4807F02BFEC
:100EE000013015F4C03F0130F0BC0138704700BF3D
:100EF00080B500AF0E4B1B680D4A43F400731360BE
:100F00000B4B1B680A4A43F480631360084B1B6851
:100F1000074A43F480731360032000F073FE00203F
:100F200000F008F80AF0FAFE0023184680BD00BF62
:100F3000003C024080B582B000AF7860124B1A6866
:100F4000124B1B7819464FF47A73B3FBF1F3B2FBE3
:100F5000F3F3184600F08BFE0346002B01D001236B
:100F60000EE07B680F2B0AD8002279684FF0FF3023
:100F700000F053FE064A7B681360002300E0012363
:100F800018460837BD4680BD180000200400002028
:100F90000000002080B400AF064B1B781A46064BB9
:100FA0001B681344044A136000BFBD465DF8047B10
:100FB000704700BF04000020CC04002080B400AFC4
:100FC000034B1B681846BD465DF8047B704700BFA5
:100FD000CC04002080B584B000AF7860FFF7EEFF4E
:100FE000B8607B68FB60FB68B3F1FF3F05D0094B3D
:100FF0001B781A46FB681344FB6000BFFFF7DEFF57
:101000000246BB68D31AFA689A42F7D800BF103775
:10101000BD4680BD0400002080B400AF024B1846DE
:10102000BD465DF8047B70470004070180B584B0BD
:1010300000AF78600023FB737B68002B01D1012394
:1010400033E07B681B6C002B09D17B6800225A645B
:101050007B68002283F83C20786809F007FB7B68F6
:101060001B6C03F01003002B18D17B681B6C23F45E
:10107000885323F0020343F002027B681A64786805
:1010800000F078FB7B6800225A647B681B6C23F0BD
:10109000030343F001027B681A6401E00123FB7340
:1010A0007B68002283F83C20FB7B18461037BD4646
:1010B00080BD80B584B000AF78600023FB60002362
:1010C000BB607B681B681B6803F00203022B0CBF2C
:1010D00001230023DBB2FB607B681B685B6803F0C5
:1010E0002003202B0CBF01230023DBB2BB60FB6875
:1010F000002B49D0BB68002B46D07B681B6C03F0EB
:101100001003002B05D17B681B6C43F400727B68D5
:101110001A647B681B689B6803F04053002B2BD13B
:101120007B689B69002B27D17B681B68DB6A03F413
:101130007003002B06D07B681B689B6803F48063F8
:10114000002B19D17B681B685A687B681B6822F0EA
:1011500020025A607B681B6C23F480727B681A64DF
:101160007B681B6C03F48053002B05D17B681B6CE0
:1011700043F001027B681A64786800F0ADF97B687F
:101180001B686FF012021A607B681B681B6803F013
:101190000403042B0CBF01230023DBB2FB607B683C
:1011A0001B685B6803F08003802B0CBF01230023C6
:1011B000DBB2BB60FB68002B57D0BB68002B54D060
:1011C0007B681B6C03F01003002B05D17B681B6C44
:1011D00043F400527B681A647B681B689B6803F4C5
:1011E0004013002B39D17B681B689B6B03F44013C1
:1011F000002B06D07B681B689B6803F48063002B80
:101200002BD17B681B685B6803F48063002B24D1BF
:101210007B681B689B6803F04053002B1DD17B68E3
:101220009B69002B19D17B681B685A687B681B6817
:1012300022F080025A607B681B6C23F480527B682A
:101240001A647B681B6C03F48073002B05D17B68E8
:101250001B6C43F001027B681A64786800F0FCFBA9
:101260007B681B686FF00C021A607B681B681B6848
:1012700003F00103012B0CBF01230023DBB2FB6051
:101280007B681B685B6803F04003402B0CBF0123A5
:101290000023DBB2BB60FB68002B17D0BB68002BC0
:1012A00014D07B681B681B6803F00103012B0DD170
:1012B0007B681B6C43F480327B681A64786800F0AA
:1012C0001FF97B681B686FF001021A607B681B685E
:1012D0001B6803F02003202B0CBF01230023DBB28B
:1012E000FB607B681B685B6803F08063B3F1806F11
:1012F0000CBF01230023DBB2BB60FB68002B15D0C1
:10130000BB68002B12D07B685B6C43F002027B68E9
:101310005A647B681B686FF020021A60786800F0DE
:10132000F9F87B681B686FF020021A6000BF103765
:10133000BD4680BD80B586B000AFF860B9607A6008
:1013400000233B61FB6893F83C30012B01D1022361
:10135000B0E0FB68012283F83C20FB681B689B68B7
:1013600003F00103012B18D0FB681B689A68FB6827
:101370001B6842F001029A60504B1B68504AA2FB66
:1013800003239A0C13465B0013443B6102E03B6964
:10139000013B3B613B69002BF9D1FB681B689B68F3
:1013A00003F00103002B00F08480FB681B6C23F426
:1013B000E06323F0010343F48072FB681A64FB6866
:1013C0001B685B6803F48063002B07D0FB681B6C11
:1013D00023F4405343F48052FB681A64FB681B6C8F
:1013E00003F48053002B06D0FB685B6C23F00602ED
:1013F000FB685A6402E0FB6800225A64FB68002222
:1014000083F83C202F4B7B61FB689B6B2E4ADA6391
:10141000FB689B6B2D4A1A64FB689B6B2C4ADA6451
:10142000FB681B686FF022021A60FB681B685A6831
:10143000FB681B6842F080625A60FB681B689A6810
:10144000FB681B6842F480729A60FB68986BFB68CB
:101450001B684C331946BA687B6800F0C9FC7B698D
:101460005B6803F01F03002B0FD1FB681B689B68B0
:1014700003F04053002B1CD1FB681B689A68FB6883
:101480001B6842F080429A6013E0FB681B68114AB7
:1014900093420ED1FB681B689B6803F04053002BFE
:1014A00007D1FB681B689A68FB681B6842F08042A2
:1014B0009A60002318461837BD4680BD18000020EA
:1014C00083DE1B4300230140691900080F1A00083E
:1014D0002B1A00080020014080B483B000AF786070
:1014E00000BF0C37BD465DF8047B704780B483B005
:1014F00000AF786000BF0C37BD465DF8047B7047D5
:1015000080B483B000AF786000BF0C37BD465DF893
:10151000047B704780B483B000AF786000BF0C37A5
:10152000BD465DF8047B704780B485B000AF78603D
:1015300039600023BB607B6893F83C30012B01D1FC
:10154000022307E17B68012283F83C203B681B688B
:10155000092B25D97B681B68D9683B681B689BB23F
:101560001A4613465B0013441E3B072202FA03F39C
:10157000DA437B681B680A40DA607B681B68D968BD
:101580003B689A683B681B689BB2184603465B0041
:1015900003441E3B9A407B681B680A43DA6022E0E2
:1015A0007B681B6819693B681B689BB21A46134627
:1015B0005B001344072202FA03F3DA437B681B68DB
:1015C0000A401A617B681B6819693B689A683B6826
:1015D0001B689BB2184603465B0003449A407B6835
:1015E0001B680A431A613B685B68062B24D87B683A
:1015F0001B68596B3B685A6813469B001344053BB4
:101600001F2202FA03F3DA437B681B680A405A631D
:101610007B681B68596B3B681B689BB218463B682C
:101620005A6813469B001344053B00FA03F27B689B
:101630001B680A435A634CE03B685B680C2B24D858
:101640007B681B68196B3B685A6813469B00134400
:10165000233B1F2202FA03F3DA437B681B680A402C
:101660001A637B681B68196B3B681B689BB2184642
:101670003B685A6813469B001344233B00FA03F26D
:101680007B681B680A431A6323E07B681B68D96A7E
:101690003B685A6813469B001344413B1F2202FAE1
:1016A00003F3DA437B681B680A40DA627B681B68D5
:1016B000D96A3B681B689BB218463B685A68134658
:1016C0009B001344413B00FA03F27B681B680A430A
:1016D000DA62234BFB607B681B68224A934209D184
:1016E0003B681B68122B05D1FB685B6843F48002E2
:1016F000FB685A607B681B681A4A934225D13B6895
:101700001B68194A934203D03B681B68112B1CD1FC
:10171000FB685B6843F40002FB685A603B681B6827
:10172000114A934211D1114B1B68114AA2FB0323AA
:101730009A0C13469B0013445B00BB6002E0BB683D
:10174000013BBB60BB68002BF9D17B68002283F8AA
:101750003C20002318461437BD465DF8047B7047D3
:10176000002301400020014012000010180000205A
:1017700083DE1B4380B485B000AF7860784BFB609C
:10178000FB685B6823F44032FB685A60FB685A6868
:101790007B685B681A43FB685A607B681B685A6801
:1017A0007B681B6822F480725A607B681B685968EA
:1017B0007B681B691A027B681B680A435A607B6856
:1017C0001B685A687B681B6822F040725A607B680D
:1017D0001B6859687B689A687B681B680A435A6073
:1017E0007B681B689A687B681B6822F400629A60B9
:1017F0007B681B6899687B68DA687B681B680A43AA
:101800009A607B689B6A574A934222D07B681B6828
:101810009A687B681B6822F070629A607B681B681C
:1018200099687B689A6A7B681B680A439A607B6840
:101830001B689A687B681B6822F040529A607B683C
:101840001B6899687B68DA6A7B681B680A439A6040
:101850000FE07B681B689A687B681B6822F07062E7
:101860009A607B681B689A687B681B6822F040520C
:101870009A607B681B689A687B681B6822F002028A
:101880009A607B681B6899687B689B695A007B68D3
:101890001B680A439A607B681B6A002B1BD07B681D
:1018A0001B685A687B681B6842F400625A607B6858
:1018B0001B685A687B681B6822F460425A607B6828
:1018C0001B6859687B685B6A013B5A037B681B682D
:1018D0000A435A6007E07B681B685A687B681B688C
:1018E00022F400625A607B681B68DA6A7B681B68B6
:1018F00022F47002DA627B681B68D96A7B68DB6954
:10190000013B1A057B681B680A43DA627B681B6827
:101910009A687B681B6822F400729A607B681B6877
:1019200099687B681B6B5A027B681B680A439A6044
:101930007B681B689A687B681B6822F480629A60E7
:101940007B681B6899687B685B699A027B681B6887
:101950000A439A6000BF1437BD465DF8047B7047A8
:10196000002301400100000F80B584B000AF786013
:101970007B689B6BFB60FB681B6C03F05003002BC8
:101980003CD1FB681B6C43F40072FB681A64FB6873
:101990001B689B6803F04053002B2BD1FB689B69AD
:1019A000002B27D1FB681B68DB6A03F47003002B54
:1019B00006D0FB681B689B6803F48063002B19D179
:1019C000FB681B685A68FB681B6822F020025A609B
:1019D000FB681B6C23F48072FB681A64FB681B6C49
:1019E00003F48053002B05D1FB681B6C43F001020C
:1019F000FB681A64F868FFF76FFD04E0FB689B6BF7
:101A0000DB6C7868984700BF1037BD4680BD80B555
:101A100084B000AF78607B689B6BFB60F868FFF771
:101A200065FD00BF1037BD4680BD80B584B000AFF6
:101A300078607B689B6BFB60FB6840221A64FB68E4
:101A40005B6C43F00402FB685A64F868FFF762FDC0
:101A500000BF1037BD4680BD80B483B000AF786052
:101A600000BF0C37BD465DF8047B704780B485B07D
:101A700000AF78607B6803F00703FB600C4BDB680A
:101A8000BB60BA684FF6FF031340BB60FB681A02E5
:101A9000BB68134343F0BF6343F40033BB60044AA5
:101AA000BB68D36000BF1437BD465DF8047B704748
:101AB00000ED00E080B400AF044BDB681B0A03F0CC
:101AC00007031846BD465DF8047B704700ED00E053
:101AD00080B483B000AF0346FB71FB7903F01F02B3
:101AE000074997F907305B09012000FA02F241F833
:101AF000232000BF0C37BD465DF8047B704700BF54
:101B000000E100E080B483B000AF03463960FB71B0
:101B100097F90730002B0BDA3B68DAB20C49FB79F6
:101B200003F00F03043B1201D2B20B441A7609E012
:101B30003B68DAB2074997F907301201D2B20B4479
:101B400083F8002300BF0C37BD465DF8047B704767
:101B500000ED00E000E100E080B489B000AFF86083
:101B6000B9607A60FB6803F00703FB61FB69C3F1AE
:101B70000703042B28BF0423BB61FB690433062B36
:101B800002D9FB69033B00E000237B614FF0FF3289
:101B9000BB6902FA03F3DA43BB681A407B699A40D7
:101BA0004FF0FF317B6901FA03F3D9437B680B40A7
:101BB000134318462437BD465DF8047B7047000088
:101BC00080B582B000AF78607B68013BB3F1807F65
:101BD00001D301230FE00A4A7B68013B53600F21C8
:101BE0004FF0FF30FFF78EFF054B00229A60044B49
:101BF00007221A60002318460837BD4680BD00BF83
:101C000010E000E080B582B000AF78607868FFF740
:101C10002DFF00BF0837BD4680BD80B586B000AF40
:101C20000346B9607A60FB7300237B61FFF742FFD4
:101C300078617A68B9687869FFF78EFF024697F98C
:101C40000F3011461846FFF75DFF00BF1837BD463D
:101C500080BD80B582B000AF0346FB7197F90730B5
:101C60001846FFF735FF00BF0837BD4680BD80B579
:101C700082B000AF78607868FFF7A2FF034618468D
:101C80000837BD4680BD80B500AF06F0F5FE00BF49
:101C900080BD000080B586B000AF786000237B6116
:101CA000FFF78CF938617B68002B01D1012399E0A3
:101CB0007B68002283F834207B68022283F8352079
:101CC0007B681B681A687B681B6822F001021A6037
:101CD0000FE0FFF773F902463B69D31A052B08D9C9
:101CE0007B6820225A657B68032283F83520032312
:101CF00078E07B681B681B6803F00103002BE8D1C8
:101D00007B681B681B687B617A69384B13407B6179
:101D10007B685A687B689B681A437B68DB681A4358
:101D20007B681B691A437B685B691A437B689B6904
:101D30001A437B68DB691A437B681B6A13437A6921
:101D400013437B617B685B6A042B07D17B68DA6A8B
:101D50007B681B6B13437A6913437B617B681B6849
:101D60007A691A607B681B685B697B617B6923F019
:101D700007037B617B685B6A7A6913437B617B68DD
:101D80005B6A042B17D17B689B6A7A6913437B617A
:101D90007B68DB6A002B0ED0786800F0A7FA034658
:101DA000002B08D07B6840225A657B68012283F8AB
:101DB0003520012316E07B681B687A695A617868D0
:101DC00000F05EFA0346FB607B68DB6D3F229A40C1
:101DD000FB689A607B6800225A657B68012283F861
:101DE0003520002318461837BD4680BD3F8010F0CF
:101DF00080B586B000AFF860B9607A603B600023C0
:101E0000FB75FB689B6D3B61FB6893F83430012BDD
:101E100001D1022348E0FB68012283F83420FB68EB
:101E200093F83530DBB2012B37D1FB68022283F8FF
:101E30003520FB6800225A653B687A68B968F86803
:101E400000F0F0F9FB68DB6D3F229A403B699A6035
:101E5000FB681B681A68FB681B6842F016021A6070
:101E6000FB681B685A69FB681B6842F080025A6174
:101E7000FB681B6C002B07D0FB681B681A68FB68AB
:101E80001B6842F008021A60FB681B681A68FB684E
:101E90001B6842F001021A6005E0FB68002283F82B
:101EA00034200223FB75FB7D18461837BD4680BDE4
:101EB00080B483B000AF78607B6893F83530DBB2D4
:101EC000022B04D07B6880225A6501230CE07B68DA
:101ED000052283F835207B681B681A687B681B68BD
:101EE00022F001021A60002318460C37BD465DF847
:101EF000047B704780B586B000AF78600023BB607C
:101F0000924B1B68924AA2FB03239B0A7B617B686E
:101F10009B6D3B613B691B68FB607B68DB6D082246
:101F20009A40FB681340002B1AD07B681B681B6823
:101F300003F00403002B13D07B681B681A687B68CE
:101F40001B6822F004021A607B68DB6D08229A404D
:101F50003B699A607B685B6D43F001027B685A6560
:101F60007B68DB6D01229A40FB681340002B12D086
:101F70007B681B685B6903F08003002B0BD07B68D8
:101F8000DB6D01229A403B699A607B685B6D43F090
:101F900002027B685A657B68DB6D04229A40FB680D
:101FA0001340002B12D07B681B681B6803F00203F0
:101FB000002B0BD07B68DB6D04229A403B699A6052
:101FC0007B685B6D43F004027B685A657B68DB6D60
:101FD00010229A40FB681340002B43D07B681B689B
:101FE0001B6803F00803002B3CD07B68DB6D1022DC
:101FF0009A403B699A607B681B681B6803F48023E6
:10200000002B18D07B681B681B6803F40023002B8F
:1020100008D17B681B6C002B24D07B681B6C786814
:1020200098471FE07B689B6C002B1BD07B689B6CE8
:102030007868984716E07B681B681B6803F4807318
:10204000002B07D17B681B681A687B681B6822F02D
:1020500008021A607B681B6C002B03D07B681B6C2A
:10206000786898477B68DB6D20229A40FB681340B4
:10207000002B00F08E807B681B681B6803F0100348
:10208000002B00F086807B68DB6D20229A403B6944
:102090009A607B6893F83530DBB2052B36D17B68CC
:1020A0001B681A687B681B6822F016021A607B683E
:1020B0001B685A697B681B6822F080025A617B6842
:1020C0001B6C002B03D17B689B6C002B07D07B68BB
:1020D0001B681A687B681B6822F008021A607B681C
:1020E000DB6D3F229A403B699A607B68002283F84F
:1020F00034207B68012283F835207B681B6D002B20
:102100007DD07B681B6D7868984778E07B681B689A
:102110001B6803F48023002B1CD07B681B681B68A2
:1021200003F40023002B08D17B685B6C002B30D0BC
:102130007B685B6C786898472BE07B68DB6B002BD7
:1021400027D07B68DB6B7868984722E01800002076
:10215000B5814E1B7B681B681B6803F48073002BE2
:102160000FD17B681B681A687B681B6822F010021D
:102170001A607B68002283F834207B68012283F890
:1021800035207B68DB6B002B03D07B68DB6B7868CA
:1021900098477B685B6D002B32D07B685B6D03F0EA
:1021A0000103002B22D07B68052283F835207B6851
:1021B0001B681A687B681B6822F001021A60BB6802
:1021C0000133BB607A699A4207D37B681B681B683E
:1021D00003F00103002BF2D100E000BF7B68002276
:1021E00083F834207B68012283F835207B68DB6C20
:1021F000002B05D07B68DB6C7868984700E000BF57
:102200001837BD4680BD00BF80B483B000AF786092
:102210007B6893F83530DBB218460C37BD465DF865
:10222000047B704780B485B000AFF860B9607A6015
:102230003B60FB681B681A68FB681B6822F48022FD
:102240001A60FB681B683A685A60FB689B68402B01
:1022500008D1FB681B687A689A60FB681B68BA68DB
:10226000DA6007E0FB681B68BA689A60FB681B6865
:102270007A68DA6000BF1437BD465DF8047B7047AA
:1022800080B485B000AF78607B681B68DBB2103B20
:10229000144AA2FB03231B09FB60134AFB68134487
:1022A0001B781A467B68DA65FB68032B09D97B68C3
:1022B0001B6823F47F7323F003031A1D7B689A6560
:1022C00007E07B681B6823F47F7323F003037A68BD
:1022D00093657B689B6D18461437BD465DF8047B9B
:1022E000704700BFABAAAAAA20F7000880B485B047
:1022F00000AF78600023FB737B689B6ABB607B68E0
:102300009B69002B1FD1BB68032B55D801A252F843
:1023100023F000BF252300083723000825230008E9
:10232000B92300087B68DB6A03F08073002B45D07B
:102330000123FB7342E07B68DB6AB3F1C07F3FD1CE
:102340000123FB733CE07B689B69B3F5005F21D1FF
:10235000BB68032B36D801A252F823F06D23000886
:10236000732300086D230008852300080123FB73F5
:102370002FE07B68DB6A03F08073002B24D00123FD
:10238000FB7321E07B68DB6AB3F1C07F1ED10123C0
:10239000FB731BE0BB68022B02D9032B03D018E0B0
:1023A0000123FB7315E07B68DB6A03F08073002B6D
:1023B0000ED00123FB730BE000BF0AE000BF08E072
:1023C00000BF06E000BF04E000BF02E000BF00E085
:1023D00000BFFB7B18461437BD465DF8047B704791
:1023E00080B489B000AF7860396000237B6100233E
:1023F0003B610023BB610023FB6165E10122FB69B6
:1024000002FA03F37B613B681B687A6913403B6106
:102410003A697B699A4240F054813B685B68022BC1
:1024200003D03B685B68122B23D1FB69DA087B6819
:10243000083253F82230BB61FB6903F007039B00AD
:102440000F2202FA03F3DB43BA691340BB613B6816
:102450001A69FB6903F007039B0002FA03F3BA69E8
:102460001343BB61FB69DA087B680832B96943F83A
:1024700022107B681B68BB61FB695B00032202FAC8
:1024800003F3DB43BA691340BB613B685B6803F04D
:102490000302FB695B0002FA03F3BA691343BB61F1
:1024A0007B68BA691A603B685B68012B0BD03B689C
:1024B0005B68022B07D03B685B68112B03D03B683D
:1024C0005B68122B30D17B689B68BB61FB695B004A
:1024D000032202FA03F3DB43BA691340BB613B6892
:1024E000DA68FB695B0002FA03F3BA691343BB6164
:1024F0007B68BA699A607B685B68BB610122FB6993
:1025000002FA03F3DB43BA691340BB613B685B68C3
:102510001B0903F00102FB6902FA03F3BA691343D2
:10252000BB617B68BA695A607B68DB68BB61FB6929
:102530005B00032202FA03F3DB43BA691340BB6179
:102540003B689A68FB695B0002FA03F3BA691343BC
:10255000BB617B68BA69DA603B685B6803F08053F3
:10256000002B00F0AE800023FB605C4B5B6C5B4A91
:1025700043F480435364594B5B6C03F48043FB602A
:10258000FB68574AFB699B08023352F82330BB6152
:10259000FB6903F003039B000F2202FA03F3DB4302
:1025A000BA691340BB617B684E4A934225D07B6871
:1025B0004D4A93421FD07B684C4A934219D07B68A6
:1025C0004B4A934213D07B684A4A93420DD07B68B2
:1025D000494A934207D07B68484A934201D1062377
:1025E0000CE007230AE0052308E0042306E00323A8
:1025F00004E0022302E0012300E00023FA6902F074
:10260000030292009340BA691343BB613449FB69EA
:102610009B080233BA6941F82320394B1B68BB6120
:102620003B69DB43BA691340BB613B685B6803F4F9
:102630008033002B03D0BA693B691343BB61304A36
:10264000BB6913602E4B5B68BB613B69DB43BA69B6
:102650001340BB613B685B6803F40033002B03D07D
:10266000BA693B691343BB61254ABB695360244B7C
:102670009B68BB613B69DB43BA691340BB613B6844
:102680005B6803F48013002B03D0BA693B691343E2
:10269000BB611B4ABB699360194BDB68BB613B693B
:1026A000DB43BA691340BB613B685B6803F400130A
:1026B000002B03D0BA693B691343BB61104ABB6965
:1026C000D360FB690133FB61FB690F2B7FF696AE8C
:1026D00000BF2437BD465DF8047B704700380240D8
:1026E000003801400000024000040240000802409F
:1026F000000C02400010024000140240001802408A
:10270000003C014080B485B000AF78600B467B8010
:102710007B681A697B881340002B02D00123FB736E
:1027200001E00023FB73FB7B18461437BD465DF8C0
:10273000047B704780B483B000AF78600B467B8029
:1027400013467B707B78002B03D07A887B689A6174
:1027500003E07B881A047B689A6100BF0C37BD4692
:102760005DF8047B704780B483B000AF78600B469F
:102770007B807B685A697B885A407B685A6100BFBE
:102780000C37BD465DF8047B7047000080B584B00F
:1027900000AF78600023FB600023BB607B68002BE8
:1027A00001D10123C8E07B6893F83D30DBB2002BF8
:1027B00006D17B68002283F83C20786808F0A2FAF2
:1027C0007B68242283F83D207B681B681A687B683D
:1027D0001B6822F001021A6002F046FAB860BB687A
:1027E000574AA2FB03239B0CFB607B681B68FA68BB
:1027F0005A607B685B68534A934202D8FB68013396
:1028000009E0FB684FF4967202FB03F34E4AA2FB09
:1028100003239B0901337A68126813627B685B6843
:10282000484A934212D87B685B685B00BA68B2FB87
:10283000F3F3C3F30B03032B06D97B685B685B00E0
:10284000BA68B2FBF3F345E0042343E07B689B687E
:10285000002B0FD17B685A6813465B001344BA689B
:10286000B2FBF3F3C3F30B03002B0CBF01230023D4
:10287000DBB210E07B685A6813469B0013449A0051
:102880001344BA68B2FBF3F3C3F30B03002B0CBF82
:1028900001230023DBB2002B01D001231AE07B6867
:1028A0009B68002B0AD17B685A6813465B0013446F
:1028B000BA68B2FBF3F343F400430BE07B685A6859
:1028C00013469B0013449A001344BA68B2FBF3F317
:1028D00043F440437A681268D3617B68D9697B68A6
:1028E0001A6A7B681B680A431A607B6819697B68EF
:1028F000DA687B681B680A439A607B6859697B6861
:102900009A697B681B680A43DA607B681B681A68EF
:102910007B681B6842F001021A607B6800221A641F
:102920007B68202283F83D207B6800221A637B6845
:10293000002283F83E20002318461037BD4680BD94
:1029400083DE1B43A0860100D34D621080B588B0A2
:1029500002AFF8607A601A460B467B8113463B81D2
:1029600000237B61FEF72AFB7861FB6893F83D301A
:10297000DBB2202B40F0EE807B690093192301220B
:102980007749F86801F086FE0346002B01D0022348
:10299000E1E0FB6893F83C30012B01D10223DAE03F
:1029A000FB68012283F83C20FB681B681B6803F06E
:1029B0000103012B07D0FB681B681A68FB681B68C2
:1029C00042F001021A60FB681B681A68FB681B680A
:1029D00022F400621A60FB68212283F83D20FB6824
:1029E000102283F83E20FB6800221A64FB687A6894
:1029F0005A62FB683A895A85FB685A4ADA62FB6870
:102A00005B8D9AB2FB681A8579897B693A6AF868A6
:102A100001F0A8FC0346002B0FD0FB681B6C042BB5
:102A200005D1FB68002283F83C20012393E0FB687A
:102A3000002283F83C2003238DE000233B61FB68E8
:102A40001B685B693B61FB681B689B693B613B6979
:102A500066E07A69396AF86801F0DBFE0346002B0C
:102A60000FD0FB681B6C042B09D1FB681B681A682C
:102A7000FB681B6842F400721A6001236BE00323B9
:102A800069E0FB685B6A591CFA6851621A78FB6856
:102A90001B681A61FB685B8D9BB2013B9AB2FB68B5
:102AA0005A85FB681B8D013B9AB2FB681A85FB684F
:102AB0001B685B6903F00403042B19D1FB681B8DB1
:102AC000002B15D0FB685B6A591CFA6851621A78B2
:102AD000FB681B681A61FB685B8D9BB2013B9AB275
:102AE000FB685A85FB681B8D013B9AB2FB681A850F
:102AF0007A69396AF86801F0C9FE0346002B0FD0E5
:102B0000FB681B6C042B09D1FB681B681A68FB6807
:102B10001B6842F400721A6001231CE003231AE0D0
:102B2000FB681B8D002B94D1FB681B681A68FB683F
:102B30001B6842F400721A60FB68202283F83D2073
:102B4000FB68002283F83E20FB68002283F83C20CB
:102B5000002300E0022318461837BD4680BD00BFA1
:102B6000020010000000FFFF80B58CB002AFF860DB
:102B70007A601A460B467B8113463B8100237B62B9
:102B8000FEF71CFA7862FB6893F83D30DBB2202B2D
:102B900040F015827B6A0093192301228549F86869
:102BA00001F078FD0346002B01D0022308E2FB6808
:102BB00093F83C30012B01D1022301E2FB68012292
:102BC00083F83C20FB681B681B6803F00103012BA2
:102BD00007D0FB681B681A68FB681B6842F001029B
:102BE0001A60FB681B681A68FB681B6822F40062A5
:102BF0001A60FB68222283F83D20FB68102283F8CC
:102C00003E20FB6800221A64FB687A685A62FB68FF
:102C10003A895A85FB68684ADA62FB685B8D9AB22A
:102C2000FB681A8579897B6A3A6BF86801F01CFCAD
:102C30000346002B0FD0FB681B6C042B05D1FB68EF
:102C4000002283F83C200123BAE1FB68002283F8CC
:102C50003C200323B4E1FB681B8D002B13D1002320
:102C60003B62FB681B685B693B62FB681B689B6996
:102C70003B623B6AFB681B681A68FB681B6842F48E
:102C800000721A6088E1FB681B8D012B1BD1FB6869
:102C90001B681A68FB681B6822F480621A600023B4
:102CA000FB61FB681B685B69FB61FB681B689B69D8
:102CB000FB61FB69FB681B681A68FB681B6842F4D0
:102CC00000721A6068E1FB681B8D022B1BD1FB6848
:102CD0001B681A68FB681B6822F480621A60FB6834
:102CE0001B681A68FB681B6842F400621A600023C4
:102CF000BB61FB681B685B69BB61FB681B689B6908
:102D0000BB61BB6948E1FB681B681A68FB681B680C
:102D100042F480621A6000237B61FB681B685B6978
:102D20007B61FB681B689B697B617B6934E1FB68A5
:102D30001B8D032B00F2EB80FB681B8D012B27D131
:102D40007A6A396BF86801F0DEFD0346002B07D084
:102D5000FB681B6C202B01D1032331E101232FE100
:102D6000FB681B681869FB685B6A591CFA6851624A
:102D7000C2B21A70FB681B8D013B9AB2FB681A85C0
:102D8000FB685B8D9BB2013B9AB2FB685A8503E1FD
:102D9000FB681B8D022B4AD17B6A00933B6B0022A0
:102DA0000649F86801F076FC0346002B08D003239F
:102DB00006E100BF020010000000FFFF0400010058
:102DC000FB681B681A68FB681B6842F400721A6093
:102DD000FB681B681869FB685B6A591CFA685162DA
:102DE000C2B21A70FB681B8D013B9AB2FB681A8550
:102DF000FB685B8D9BB2013B9AB2FB685A85FB680E
:102E00001B681869FB685B6A591CFA685162C2B298
:102E10001A70FB681B8D013B9AB2FB681A85FB6830
:102E20005B8D9BB2013B9AB2FB685A85B4E07B6A2A
:102E300000933B6B00226449F86801F02BFC0346C9
:102E4000002B01D00323BBE0FB681B681A68FB68FA
:102E50001B6822F480621A60FB681B681869FB68B3
:102E60005B6A591CFA685162C2B21A70FB681B8D0A
:102E7000013B9AB2FB681A85FB685B8D9BB2013BF4
:102E80009AB2FB685A857B6A00933B6B00224E49DD
:102E9000F86801F0FFFB0346002B01D003238FE00D
:102EA000FB681B681A68FB681B6842F400721A60B2
:102EB000FB681B681869FB685B6A591CFA685162F9
:102EC000C2B21A70FB681B8D013B9AB2FB681A856F
:102ED000FB685B8D9BB2013B9AB2FB685A85FB682D
:102EE0001B681869FB685B6A591CFA685162C2B2B8
:102EF0001A70FB681B8D013B9AB2FB681A85FB6850
:102F00005B8D9BB2013B9AB2FB685A8544E07A6ABA
:102F1000396BF86801F0F7FC0346002B07D0FB681B
:102F20001B6C202B01D103234AE0012348E0FB68FE
:102F30001B681869FB685B6A591CFA685162C2B267
:102F40001A70FB681B8D013B9AB2FB681A85FB68FF
:102F50005B8D9BB2013B9AB2FB685A85FB681B688C
:102F60005B6903F00403042B16D1FB681B68186926
:102F7000FB685B6A591CFA685162C2B21A70FB683E
:102F80001B8D013B9AB2FB681A85FB685B8D9BB277
:102F9000013B9AB2FB685A85FB681B8D002B7FF4BE
:102FA000C6AEFB68202283F83D20FB68002283F830
:102FB0003E20FB68002283F83C20002300E002232F
:102FC00018462837BD4680BD0400010080B586B094
:102FD00000AF78607B681B689B697B617B681B68BE
:102FE0005B693B617B681B685B68FB607B6893F88F
:102FF0003E30DBB2BB60BB68102B02D0BB68402BFD
:1030000072D13B6903F00113002B08D0FB6803F475
:103010000073002B03D0786800F0A0FC1AE03A6936
:10302000654B1340002B08D0FB6803F40073002BA2
:1030300003D0786800F0FFFC0CE03A695F4B134066
:10304000002B07D0FB6803F40073002B02D07868D4
:1030500000F002FD7A695A4B1340002B22D03A69E6
:10306000584B1340002B0DD0FB6803F48063002BFA
:1030700008D03A69544B1340002B03D1786800F014
:10308000BBF930E03A69504B1340002B00F08F80C1
:10309000FB6803F40073002B00F08980786800F06F
:1030A000A0FA84E03A69494B1340002B0DD0FB682D
:1030B00003F48063002B08D03A69434B1340002B84
:1030C00003D1786800F002FB0DE03A693E4B1340F3
:1030D000002B6CD0FB6803F40073002B67D078687A
:1030E00000F06EFB63E062E03A69344B1340002B62
:1030F00008D0FB6803F40073002B03D0786800F05D
:10310000CAFE55E03A69324B1340002B08D0FB68E9
:1031100003F40073002B03D0786800F0E7FE47E06B
:103120007A69274B1340002B20D03A69254B134076
:10313000002B0DD0FB6803F48063002B08D03A69A4
:10314000214B1340002B03D1786800F0E8FD2FE0FD
:103150003A691D4B1340002B2AD0FB6803F400731F
:10316000002B25D0786800F017FE21E03A69174B54
:103170001340002B0DD0FB6803F48063002B08D0B4
:103180003A69114B1340002B03D1786800F024FEFC
:103190000EE03A690C4B1340002B09D0FB6803F496
:1031A0000073002B04D0786800F054FE00E000BFEC
:1031B00000BF1837BD4680BD0800010002000100B5
:1031C0000400100080000100040001004000010024
:1031D0001000010080B588B000AF78600023FB616B
:1031E0000023BB6100237B6100233B617B681B687C
:1031F0005B69FB607B681B685B68BB60FA68494B76
:103200001340002B0FD0BB6803F48073002B0AD04F
:103210007B681B6C43F001027B681A647B681B6847
:103220006FF480725A61FB6803F48133002B0FD076
:10323000BB6803F48073002B0AD07B681B6C43F0DF
:1032400002027B681A647B681B686FF400725A6123
:10325000FB6803F48233002B44D0BB6803F4807313
:10326000002B3FD07B6893F83E30DBB2FB617B687C
:103270005B8D9BB2BB617B6893F83D30DBB27B61B9
:103280007B681B6B3B61FB69202B12D1BB69002B58
:103290000FD17B69212B08D07B69292B05D07B6955
:1032A000282B06D13B69212B03D1786800F0E4FE7E
:1032B00018E07B681B6C43F004027B681A647B682F
:1032C00093F83E30DBB2102B07D17B681B681A687D
:1032D0007B681B6842F400721A607B681B686FF49D
:1032E00080625A61FB6803F48433002B0FD0BB6803
:1032F00003F48073002B0AD07B681B6C43F0080238
:103300007B681A647B681B686FF400625A617B6893
:103310001B6C002B02D0786800F020FF00BF203724
:10332000BD4680BD0001010080B483B000AF78606D
:1033300000BF0C37BD465DF8047B704780B483B096
:1033400000AF786000BF0C37BD465DF8047B704766
:1033500080B483B000AF786000BF0C37BD465DF825
:10336000047B704780B483B000AF786000BF0C3737
:10337000BD465DF8047B704780B483B000AF7860D1
:103380000B46FB7013463B8000BF0C37BD465DF813
:10339000047B704780B483B000AF786000BF0C3707
:1033A000BD465DF8047B704780B483B000AF7860A1
:1033B00000BF0C37BD465DF8047B704780B483B016
:1033C00000AF786000BF0C37BD465DF8047B7047E6
:1033D00080B483B000AF786000BF0C37BD465DF8A5
:1033E000047B704780B483B000AF786000BF0C37B7
:1033F000BD465DF8047B704780B586B000AF78604D
:103400007B6893F83D30DBB27B617B6893F83E309C
:10341000DBB23B617B68DB6AFB607B681B8D002B4A
:1034200050D17B69212B4DD1FB68042B1DD0FB684B
:10343000082B1AD0FB6813F5803F16D07B681B68F9
:103440005A687B681B6822F4E0625A607B6811222C
:103450001A637B68002283F83E207B68202283F871
:103460003D207868FFF760FFB6E07B681B685A680C
:103470007B681B6822F4E0625A607B681B681A68EC
:103480007B681B6842F400721A607B6800221A6332
:103490007B68202283F83D207B6893F83E30DBB2C6
:1034A000402B07D17B68002283F83E207868FFF725
:1034B0007BFF91E07B68002283F83E207868FFF76D
:1034C00033FF89E07B69212B06D03B69402B40F01C
:1034D00083807B69222B7FD17B685B8D9BB2002B25
:1034E00008D17B681B685A687B681B6822F480627D
:1034F0005A6071E07B6893F83E30DBB2402B5BD1C1
:103500007B681B6D002B1DD17B68DB6C012B0BD105
:103510007B689B6CDAB27B681B681A617B681B6DE9
:103520009A1C7B681A6557E07B689B6C9BB21B12E8
:10353000DAB27B681B681A617B681B6D5A1C7B685A
:103540001A6549E07B681B6D012B0BD17B689B6C76
:10355000DAB27B681B681A617B681B6D5A1C7B683A
:103560001A6539E07B681B6D022B35D17B6893F8B7
:103570003D30DBB2222B08D17B681B681A687B6860
:103580001B6842F480721A6026E07B6893F83D3035
:10359000DBB2212B20D17B685B6A591C7A685162AF
:1035A0001A787B681B681A617B685B8D9BB2013B54
:1035B0009AB27B685A850FE07B685B6A591C7A680F
:1035C00051621A787B681B681A617B685B8D9BB2BD
:1035D000013B9AB27B685A85002318461837BD46CE
:1035E00080BD80B584B000AF78607B68DB6AFB602B
:1035F0007B6893F83D30DBB2212B62D17B685B8D19
:103600009BB2002B10D07B685B6A591C7A685162B0
:103610001A787B681B681A617B685B8D9BB2013BE3
:103620009AB27B685A854CE0FB68042B1DD0FB687E
:10363000082B1AD0FB6813F5803F16D07B681B68F7
:103640005A687B681B6822F4E0625A607B6811222A
:103650001A637B68002283F83E207B68202283F86F
:103660003D207868FFF760FE2BE07B681B685A6896
:103670007B681B6822F4E0625A607B681B681A68EA
:103680007B681B6842F400721A607B6800221A6330
:103690007B68202283F83D207B6893F83E30DBB2C4
:1036A000402B07D17B68002283F83E207868FFF723
:1036B0007BFE06E07B68002283F83E207868FFF7F7
:1036C00033FE002318461037BD4680BD80B584B058
:1036D00000AF78607B6893F83D30DBB2222B6AD173
:1036E0000023FB607B685B8D9BB2FB60FB68032B58
:1036F0001ED97B681B6818697B685B6A591C7A68ED
:103700005162C2B21A707B685B8D9BB2013B9AB268
:103710007B685A857B685B8D9BB2032B4BD17B68A2
:103720001B685A687B681B6822F480625A6042E01A
:10373000FB68012B02D0FB68002B3CD17B681B6827
:103740001A687B681B6822F480621A607B681B68B9
:103750005A687B681B6822F4E0625A607B681B68C9
:1037600018697B685B6A591C7A685162C2B21A7028
:103770007B685B8D9BB2013B9AB27B685A857B6804
:10378000202283F83D207B6800221A637B6893F82F
:103790003E30DBB2402B07D17B68002283F83E200D
:1037A0007868FFF70BFE06E07B68002283F83E2076
:1037B0007868FFF7C3FD002318461037BD4680BD6B
:1037C00080B584B000AF78607B68DB6AFB607B68A3
:1037D0005B8D9BB2042B19D17B681B685A687B6890
:1037E0001B6822F480625A607B681B6818697B68DA
:1037F0005B6A591C7A685162C2B21A707B685B8D31
:103800009BB2013B9AB27B685A85A2E07B685B8DD4
:103810009BB2032B21D17B681B685A687B681B68AD
:1038200022F480625A607B681B681A687B681B6898
:1038300022F480621A607B681B6818697B685B6A87
:10384000591C7A685162C2B21A707B685B8D9BB258
:10385000013B9AB27B685A857BE07B685B8D9BB2AB
:10386000022B65D1FB68022B02D0FB68012B10D123
:103870007B681B681A687B681B6822F480621A6088
:103880007B681B681A687B681B6842F480721A6048
:1038900007E07B681B681A687B681B6842F400724B
:1038A0001A607B681B6818697B685B6A591C7A68B8
:1038B0005162C2B21A707B685B8D9BB2013B9AB2B7
:1038C0007B685A857B681B6818697B685B6A591C32
:1038D0007A685162C2B21A707B685B8D9BB2013B01
:1038E0009AB27B685A857B681B685A687B681B683C
:1038F00022F440725A607B68202283F83D207B6866
:1039000000221A637B6893F83E30DBB2402B07D16C
:103910007B68002283F83E207868FFF74FFD18E0AF
:103920007B68002283F83E207868FFF707FD10E0EF
:103930007B681B6818697B685B6A591C7A685162EE
:10394000C2B21A707B685B8D9BB2013B9AB27B68F6
:103950005A85002318461037BD4680BD80B483B019
:1039600000AF78607B6893F83E30DBB2402B17D114
:103970007B681B6D002B09D17B685B6CDBB21A4640
:103980007B681B6802F0FE021A614DE07B685B6C8D
:10399000DBB243F00103DAB27B681B681A6143E0D3
:1039A0007B681B69B3F5804F19D17B6893F83D3074
:1039B000DBB2212B09D17B685B6CDBB21A467B68DA
:1039C0001B6802F0FE021A612EE07B685B6CDBB2C2
:1039D00043F00103DAB27B681B681A6124E07B685C
:1039E0001B6D002B0ED17B685B6C9BB2DB11DBB2D5
:1039F00003F00603DBB263F00F03DAB27B681B68E7
:103A00001A6111E07B681B6D012B0DD17B685B6C2B
:103A10009BB2DB11DBB203F00603DBB263F00E03F3
:103A2000DAB27B681B681A61002318460C37BD4662
:103A30005DF8047B704780B483B000AF78607B682A
:103A40005B6CDAB27B681B681A61002318460C377E
:103A5000BD465DF8047B704780B491B000AF7860DC
:103A60007B6893F83E30DBB2FB637B68DB6ABB6349
:103A70007B681B6B7B637B6893F83D30DBB2222B4A
:103A800040F03B817B681B6D002B0ED1FB6B402B04
:103A90000BD100233B637B681B685B693B637B68DE
:103AA0001B689B693B633B6B32E17B681B6D002BA2
:103AB0001DD17B681B69B3F5404F18D10023FB6211
:103AC0007B681B685B69FB627B681B689B69FB62A8
:103AD000FB6A7B681B681A687B681B6842F480720B
:103AE0001A607B681B6D5A1C7B681A6510E17B6845
:103AF0005B8D9BB2002B13D10023BB627B681B68DC
:103B00005B69BB627B681B689B69BB62BB6A7B6845
:103B10001B681A687B681B6842F400721A60E8E050
:103B20007B685B8D9BB2012B40F08280BB6B13F5F1
:103B3000803F37D17B681B681A687B681B6822F45A
:103B400080621A607B681B685B6803F40063B3F5EE
:103B5000006F13D17B681B681A687B681B6822F4AE
:103B600080621A6000237B627B681B685B697B62F2
:103B70007B681B689B697B627B6ABAE000233B62BF
:103B80007B681B685B693B627B681B689B693B6267
:103B90003B6A7B681B681A687B681B6842F400728A
:103BA0001A60A6E0BB6B042B26D0BB6B082B23D07E
:103BB0007B6B122B20D07B68DB6A022B08D07B68E2
:103BC0001B681A687B681B6822F480621A6007E031
:103BD0007B681B681A687B681B6842F480621A6005
:103BE0000023FB617B681B685B69FB617B681B686A
:103BF0009B69FB61FB697CE07B681B681A687B68DA
:103C00001B6822F480621A600023BB617B681B681A
:103C10005B69BB617B681B689B69BB61BB697B6837
:103C20001B681A687B681B6842F400721A6060E0C7
:103C30007B685B8D9BB2022B38D17B68DB6A022BE1
:103C400010D07B681B681A687B681B6822F480624E
:103C50001A607B681B681A687B681B6842F4006204
:103C60001A6007E07B681B681A687B681B6842F46F
:103C700080621A607B681B685B6803F40063B3F5BD
:103C8000006F07D17B681B685A687B681B6842F429
:103C900080525A6000237B617B681B685B697B6193
:103CA0007B681B689B697B617B6922E07B681B6882
:103CB0001A687B681B6842F480621A607B681B6824
:103CC0005B6803F40063B3F5006F07D17B681B6882
:103CD0005A687B681B6842F480525A6000233B613B
:103CE0007B681B685B693B617B681B689B693B6108
:103CF0003B697B6800221A650AE00023FB607B6851
:103D00001B685B69FB607B681B689B69FB60FB68E9
:103D1000002318464437BD465DF8047B704780B5E4
:103D200084B000AF78607B6893F83D30DBB2FB6015
:103D30007B685B8D9BB2002B29D07B685B6A591C2A
:103D40007A6851621A787B681B681A617B685B8DA0
:103D50009BB2013B9AB27B685A857B685B8D9BB2B4
:103D6000002B14D1FB68292B11D17B681B685A6882
:103D70007B681B6822F480625A607B6821221A6388
:103D80007B68282283F83D207868FFF7E1FA00235A
:103D900018461037BD4680BD80B483B000AF786050
:103DA0007B685B8D9BB2002B0FD07B685B6A591CD4
:103DB0007A6851621A787B681B681A617B685B8D30
:103DC0009BB2013B9AB27B685A85002318460C3798
:103DD000BD465DF8047B704780B584B000AF786065
:103DE0007B6893F83D30DBB2FB607B685B8D9BB2F8
:103DF000002B2AD07B681B6818697B685B6A591C9A
:103E00007A685162C2B21A707B685B8D9BB2013BCB
:103E10009AB27B685A857B685B8D9BB2002B14D16C
:103E2000FB682A2B11D17B681B685A687B681B686A
:103E300022F480625A607B6822221A637B682822FF
:103E400083F83D207868FFF78DFA00231846103775
:103E5000BD4680BD80B483B000AF78607B685B8D69
:103E60009BB2002B10D07B681B6818697B685B6A6B
:103E7000591C7A685162C2B21A707B685B8D9BB222
:103E8000013B9AB27B685A85002318460C37BD4621
:103E90005DF8047B704780B584B000AF7860002384
:103EA000FB730023BB817B681B689B6903F00403E1
:103EB000042B01D00123FB737B681B689B6903F013
:103EC0008003802B03D07B68DB68BB8102E07B68CA
:103ED0009B69BB81BA89FB7B19467868FFF74CFA6E
:103EE000002318461037BD4680BD000080B584B061
:103EF00000AF78607B6893F83D30DBB2FB607B6895
:103F00001B685A687B681B6822F4E0625A600023D1
:103F1000BB607B681B685B69BB607B681B681A6859
:103F20007B681B6842F001021A60BB687B681B68F3
:103F30001A687B681B6822F480621A607B681B68C1
:103F40005B6803F40063B3F5006F1AD17B6893F8E4
:103F50003D30DBB2222B05D07B6893F83D30DBB2DD
:103F60002A2B07D17B689B6B1B685B689AB27B68C6
:103F70005A8506E07B685B6B1B685B689AB27B685E
:103F80005A857B685B8D9BB2002B35D07B681B68A4
:103F90005B6903F00403042B10D17B681B6818696C
:103FA0007B685B6A591C7A685162C2B21A707B687E
:103FB0005B8D9BB2013B9AB27B685A857B681B681C
:103FC0005B6903F04003402B10D17B681B681869C4
:103FD0007B685B6A591C7A685162C2B21A707B684E
:103FE0005B8D9BB2013B9AB27B685A857B681B6CE8
:103FF00043F004027B681A647B681B6C002B03D0BF
:10400000786800F0ABF82FE0FB68282B05D0FB6840
:104010002A2B02D0FB68292B11D17B68154ADA6262
:104020007B6800221A637B68202283F83D207B682E
:10403000002283F83E207868FFF7ACF914E07B6833
:104040001B6B222B02D0FB68222B0DD17B68002238
:104050001A637B68202283F83D207B68002283F866
:104060003E207868FFF77EF9002318461037BD46DA
:1040700080BD00BF0000FFFF80B584B000AF786056
:104080007B6893F83D30DBB2FB607B68DB6ABB602A
:10409000BB68042B02D0BB68082B29D1FB68282BF6
:1040A00026D17B682C4ADA627B681B685A687B6879
:1040B0001B6822F4E0625A607B681B686FF48062C0
:1040C0005A617B681B681A687B681B6822F48062EF
:1040D0001A607B6800221A637B68202283F83D20E7
:1040E0007B68002283F83E207868FFF753F92EE0C2
:1040F000FB68212B26D17B68174ADA627B68212274
:104100001A637B68202283F83D207B68002283F8B5
:104110003E207B681B685A687B681B6822F4E0625B
:104120005A607B681B686FF480625A617B681B6809
:104130001A687B681B6822F480621A607868FFF74F
:1041400007F904E07B681B686FF480625A61002302
:1041500018461037BD4680BD0000FFFF80B584B013
:1041600000AF78607B6893F83D30DBB2FB60FB68A2
:10417000292B02D0FB682A2B07D17B6800221A6307
:104180007B68282283F83D2018E07B6893F83D3057
:10419000DBB2602B0BD07B681B685B6803F40063A9
:1041A000B3F5006F03D07B68202283F83D207B6845
:1041B00000221A637B68002283F83E207B681B681C
:1041C0001A687B681B6822F400621A607B681B68AF
:1041D0005B6803F40063B3F5006F60D17B681B6814
:1041E0005A687B681B6822F400625A607B685B6BCC
:1041F00093F83530DBB2012B20D07B685B6B574ADC
:104200001A657B685B6B1846FDF752FE0346002B70
:1042100000F083807B681B681A687B681B6822F04B
:1042200001021A607B68202283F83D207B685B6B6B
:104230001B6D7A68526B104698476EE07B689B6BEB
:10424000464A1A657B689B6B1846FDF731FE0346AC
:10425000002B62D07B681B685B6903F04003402B36
:1042600009D17B681B6818697B685B6A591C7A688E
:104270005162C2B21A707B681B681A687B681B683F
:1042800022F001021A607B68202283F83D207B68BF
:104290009B6B1B6D7A68926B104698473DE07B687C
:1042A00093F83D30DBB2602B23D17B68202283F86A
:1042B0003D207B6800221A647B681B685B6903F001
:1042C0004003402B09D17B681B6818697B685B6AD7
:1042D000591C7A685162C2B21A707B681B681A68EE
:1042E0007B681B6822F001021A607868FFF77AF891
:1042F00013E07B681B685B6903F04003402B09D126
:104300007B681B6818697B685B6A591C7A68516214
:10431000C2B21A707868FFF75BF87B6893F83D309B
:10432000DBB2282B16D17B681B6C03F00403042B33
:1043300010D17B680A4ADA627B6800221A637B68C4
:10434000202283F83D207B68002283F83E20786895
:10435000FFF720F800BF1037BD4680BDF9450008C3
:104360000000FFFF80B588B002AFF8607A603B6064
:104370000B467B81FB68DB6A7B617B69042B06D083
:104380007B69012B03D07B6913F5803F08D1FB6863
:104390001B681A68FB681B6842F480721A600BE0A5
:1043A000FB681B6B122B07D1FB681B681A68FB6844
:1043B0001B6842F480721A603B6800937B6800229D
:1043C0004FF00111F86800F065F90346002B01D0A9
:1043D000032341E0FB681B69B3F5804F08D17B895B
:1043E000DBB21A46FB681B6802F0FE021A6121E08C
:1043F0007B89DB11DBB203F00603DBB263F00F0352
:10440000DAB2FB681B681A613B687A681449F8687D
:1044100000F091F90346002B07D0FB681B6C042BBE
:1044200001D1012318E0032316E07B89DAB2FB688F
:104430001B681A613B687A680A49F86800F07BF9E2
:104440000346002B07D0FB681B6C042B01D1012312
:1044500002E0032300E0002318461837BD4680BD64
:10446000080001000200010080B588B002AFF860CA
:104470007A603B600B467B81FB68DB6A7B61FB6893
:104480001B681A68FB681B6842F480621A607B69CB
:10449000042B06D07B69012B03D07B6913F5803F89
:1044A00008D1FB681B681A68FB681B6842F48072BD
:1044B0001A600BE0FB681B6B112B07D1FB681B68B4
:1044C0001A68FB681B6842F480721A603B680093AC
:1044D0007B6800224FF00111F86800F0DBF803461A
:1044E000002B01D003237FE0FB681B69B3F5804FED
:1044F00008D17B89DBB243F00103DAB2FB681B68A9
:104500001A615FE07B89DB11DBB203F00603DBB2EB
:1045100063F00F03DAB2FB681B681A613B687A68C4
:104520003349F86800F007F90346002B07D0FB6811
:104530001B6C042B01D1012356E0032354E07B893B
:10454000DAB2FB681B681A613B687A682949F86827
:1045500000F0F1F80346002B07D0FB681B6C042B1E
:1045600001D1012340E003233EE000233B61FB68CF
:104570001B685B693B61FB681B689B693B613B692E
:10458000FB681B681A68FB681B6842F480721A603B
:104590003B6800937B6800224FF00111F86800F03F
:1045A00079F80346002B01D003231DE07B89DB1142
:1045B000DBB203F00603DBB263F00E03DAB2FB6892
:1045C0001B681A613B687A680A49F86800F0B3F81A
:1045D0000346002B07D0FB681B6C042B01D1012381
:1045E00002E0032300E0002318461837BD4680BDD3
:1045F000080001000200010080B584B000AF7860BF
:104600007B689B6BFB60FB681B681A68FB681B6818
:1046100022F480621A60FB6800225A85FB685B6B9B
:1046200000221A65FB689B6B00221A65FB6893F8F1
:104630003D30DBB2602B16D1FB68202283F83D2091
:10464000FB68002283F83E20FB6800221A64FB68A6
:104650001B681A68FB681B6822F001021A60F86880
:10466000FEF7C0FE12E0FB68202283F83D20FB68C5
:10467000002283F83E20FB681B681A68FB681B68F1
:1046800022F001021A60F868FEF7A2FE00BF1037A0
:10469000BD4680BD80B584B000AFF860B9603B60B6
:1046A0001346FB711FE03B68B3F1FF3F1BD03B6833
:1046B000002B07D0FCF782FC0246BB69D31A3A688C
:1046C0009A4210D2FB6800221A63FB68202283F80A
:1046D0003D20FB68002283F83E20FB68002283F81F
:1046E0003C20032323E0BB681B0CDBB2012B0DD164
:1046F000FB681B685B69DA43BB6813409BB2002B05
:104700000CBF01230023DBB21A460CE0FB681B68D8
:104710009B69DA43BB6813409BB2002B0CBF01239B
:104720000023DBB21A46FB799A42BCD0002318461C
:104730001037BD4680BD80B584B000AFF860B96069
:104740007A603B6040E0FB681B685B6903F4806350
:10475000B3F5806F1CD1FB681B681A68FB681B6887
:1047600042F400721A60FB681B686FF480625A6141
:10477000FB6804221A64FB6800221A63FB6820228B
:1047800083F83D20FB68002283F83C2001233CE0B5
:104790007B68B3F1FF3F17D07B68002B07D0FCF795
:1047A0000DFC02463B68D31A7A689A420CD2FB6829
:1047B00000221A63FB68202283F83D20FB68002258
:1047C00083F83C20032320E0BB681B0CDBB2012BE9
:1047D0000CD1FB681B685B69DA43BB6813409BB272
:1047E000002B14BF01230023DBB20BE0FB681B6826
:1047F0009B69DA43BB6813409BB2002B14BF0123B3
:104800000023DBB2002B9ED1002318461037BD4693
:1048100080BD80B584B000AFF860B9607A6029E0EF
:10482000F86800F0BAF80346002B01D0012329E014
:10483000BB68B3F1FF3F1DD0BB68002B07D0FCF76E
:10484000BDFB02467B68D31ABA689A4212D2FB6853
:104850001B6C43F02002FB681A64FB6800221A6399
:10486000FB68202283F83D20FB68002283F83C206F
:10487000032307E0FB681B685B6903F08003802B60
:10488000CED1002318461037BD4680BD80B584B018
:1048900000AFF860B9607A6029E0F86800F07DF850
:1048A0000346002B01D0012329E0BB68B3F1FF3F91
:1048B0001DD0BB68002B07D0FCF780FB02467B684D
:1048C000D31ABA689A4212D2FB681B6C43F02002DA
:1048D000FB681A64FB6800221A63FB68202283F8D5
:1048E0003D20FB68002283F83C20032307E0FB689F
:1048F0001B685B6903F00403042BCED10023184628
:104900001037BD4680BD80B584B000AFF860B96097
:104910007A6036E0FB681B685B6903F01003102BBC
:1049200014D1FB681B686FF010025A61FB6800220B
:104930001A64FB6800221A63FB68202283F83D207A
:10494000FB68002283F83C20012322E0BB68002B97
:1049500007D0FCF733FB02467B68D31ABA689A4249
:104960000FD2FB681B6C43F02002FB681A64FB68E3
:10497000202283F83D20FB68002283F83C2003239B
:1049800007E0FB681B685B6903F04003402BC1D163
:10499000002318461037BD4680BD80B483B000AFF9
:1049A00078607B681B685B6903F48063B3F5806F94
:1049B00014D17B681B686FF480625A617B680422A3
:1049C0001A647B6800221A637B68202283F83D20EA
:1049D0007B68002283F83C20012300E00023184676
:1049E0000C37BD465DF8047B7047000080B582B08F
:1049F00000AF00237B6000233B60204B1B6C1F4AF1
:104A000043F0805313641D4B1B6C03F080533B60D9
:104A10003B681B4B01221A60FCF7D0FA786009E072
:104A2000FCF7CCFA02467B68D31AB3F57A7F01D93A
:104A300003231FE0134B5B6803F48033B3F5803F1F
:104A4000EED1114B01221A60FCF7B8FA786009E048
:104A5000FCF7B4FA02467B68D31AB3F57A7F01D922
:104A6000032307E0074B5B6803F40033B3F5003F13
:104A7000EED1002318460837BD4680BD00380240FD
:104A800040000E420070004044000E4280B584B0E9
:104A900000AF786039607B68002B01D10123CAE048
:104AA000674B1B6803F00F033A689A420CD9644BBA
:104AB0003A68D2B21A70624B1B6803F00F033A686F
:104AC0009A4201D00123B6E07B681B6803F0020321
:104AD000002B20D07B681B6803F00403002B05D05B
:104AE000584B9B68574A43F4E05393607B681B68BC
:104AF00003F00803002B05D0524B9B68514A43F446
:104B0000604393604F4B9B6823F0F0027B689B6887
:104B10004C4913438B607B681B6803F00103002B37
:104B200044D07B685B68012B07D1464B1B6803F4BC
:104B30000033002B19D101237DE07B685B68022BD9
:104B400003D07B685B68032B07D13E4B1B6803F0E7
:104B50000073002B09D101236DE03A4B1B6803F071
:104B60000203002B01D1012365E0364B9B6823F043
:104B700003027B685B68334913438B60FCF71EFAC2
:104B8000F8600AE0FCF71AFA0246FB68D31A41F211
:104B90008832934201D903234DE02A4B9B6803F0EE
:104BA0000C027B685B689B009A42EBD1244B1B682C
:104BB00003F00F033A689A420CD2214B3A68D2B202
:104BC0001A701F4B1B6803F00F033A689A4201D01A
:104BD000012330E07B681B6803F00403002B08D03E
:104BE000184B9B6823F4E0527B68DB68154913433C
:104BF0008B607B681B6803F00803002B09D0114B06
:104C00009B6823F460427B681B69DB000D491343FA
:104C10008B6000F07BFB01460A4B9B681B0903F08D
:104C20000F03094AD35C21FA03F3084A13600020FA
:104C3000FCF780F9002318461037BD4680BD00BF41
:104C4000003C02400038024078FA000818000020BA
:104C500080B400AF034B1B681846BD465DF8047B6B
:104C6000704700BF1800002080B500AFFFF7F0FFCD
:104C70000146054B9B689B0A03F00703034AD35C7C
:104C800021FA03F3184680BD0038024088FA000874
:104C900080B500AFFFF7DCFF0146054B9B685B0B5F
:104CA00003F00703034AD35C21FA03F3184680BDDF
:104CB0000038024088FA000880B58CB000AF7860F8
:104CC00000237B6200233B620023FB610023BB6166
:104CD00000237B6100233B610023FB600023FB6218
:104CE0000023BB627B681B6803F00103002B10D01C
:104CF0006F4BD3F88C3023F0C0627B689B6B6C49A0
:104D00001343C1F88C307B689B6B002B01D10123CE
:104D1000FB627B681B6803F00203002B10D0644B1E
:104D2000D3F88C3023F0C0527B68DB6B60491343AF
:104D3000C1F88C307B68DB6B002B01D10123FB6257
:104D40007B681B6803F00403002B17D0584BD3F883
:104D50008C3023F440127B681B6B55491343C1F818
:104D60008C307B681B6BB3F5801F01D10123FB6284
:104D70007B681B6B002B01D10123BB627B681B6826
:104D800003F00803002B17D0494BD3F88C3023F4E1
:104D900040027B685B6B46491343C1F88C307B68EB
:104DA0005B6BB3F5800F01D10123FB627B685B6B0A
:104DB000002B01D10123BB627B681B6803F0200339
:104DC000002B00F08A800023BB60394B1B6C384AF3
:104DD00043F080531364364B1B6C03F08053BB606D
:104DE000BB68344B1B68334A43F480731360FCF791
:104DF000E5F8786208E0FCF7E1F802467B6AD31A2E
:104E0000022B01D9032378E22A4B1B6803F4807339
:104E1000002BF0D0264B1B6F03F440733B623B6AC0
:104E2000002B2FD07B681B6C03F440733A6A9A42C4
:104E300028D01F4B1B6F23F440733B621E4B012293
:104E40001A601D4B00221A60194A3B6A1367184BFF
:104E50001B6F03F00103002B14D0FCF7AFF878624E
:104E60000AE0FCF7ABF802467B6AD31A41F28832BB
:104E7000934201D9032340E20D4B1B6F03F0020361
:104E8000002BEED07B681B6C03F44073B3F5407FBE
:104E900014D1074B9B6823F4F8127B681B6C23F03A
:104EA000704323F44073024913438B600CE000BF4E
:104EB0000038024000700040400E47424A4B9B6859
:104EC000494A23F4F8139360474B1A6F7B681B6CB5
:104ED000C3F30B03444913430B677B681B6803F060
:104EE0001003002B04D07B6893F858203F4B1A60C6
:104EF0007B681B6803F08003002B0AD03A4BD3F881
:104F0000943023F440027B68DB6C37491343C1F8CB
:104F100094307B681B6803F04003002B0AD0324BAF
:104F2000D3F8943023F080627B689B6C2E49134346
:104F3000C1F894307B681B6803F48073002B11D098
:104F4000294BD3F8943023F000627B685B6D2649CF
:104F50001343C1F894307B685B6DB3F1006F01D1EE
:104F60000123BB627B681B6803F40073002B0AD02B
:104F70001D4BD3F8943023F080527B685B6C1A4948
:104F80001343C1F894307B681B6803F48063002BE3
:104F900011D0154BD3F8943023F000527B681B6D71
:104FA00011491343C1F894307B681B6DB3F1005F66
:104FB00001D10123FB62FB6A012B05D07B681B68D2
:104FC000B3F5006F40F0FF80094B00221A60FBF739
:104FD000F5FF78620EE0FBF7F1FF02467B6AD31A19
:104FE000022B07D9032388E100380240E011474231
:104FF000680047427E4B1B6803F00063002BEAD138
:105000007B681B6803F00103002B03D07B689B6B5C
:10501000002B09D07B681B6803F00203002B28D00B
:105020007B68DB6B002B24D1714BD3F884301B0CD5
:1050300003F0030301335B00FB616D4BD3F8843055
:105040001B0E03F00F03BB617B685A687B689B688B
:105050009B011A43FB695B08013B1B041A43BB69B4
:105060001B061A437B685B691B0761491343C1F840
:1050700084307B681B6803F00403002B04D07B683A
:105080001B6BB3F5801F0AD07B681B6803F0080315
:10509000002B35D07B685B6BB3F5800F30D1544B60
:1050A000D3F884301B0C03F0030301335B00FB6176
:1050B0004F4BD3F884301B0F03F007037B617B68F1
:1050C0005A687B689B689B011A43FB695B08013B3C
:1050D0001B041A437B681B691B061A437B691B0769
:1050E00043491343C1F88430414BD3F88C3023F04B
:1050F0001F027B689B6A013B3D491343C1F88C301A
:105100007B681B6803F48063002B29D07B681B6DD0
:10511000B3F1005F24D1364BD3F884301B0C03F07D
:10512000030301335B00BB61314BD3F884301B0FA9
:1051300003F007037B617B685A687B689B689B016F
:105140001A437B68DB685B08013B1B041A43BB699D
:105150001B061A437B691B0725491343C1F884309A
:105160007B681B6803F40063002B16D07B685A68C9
:105170007B689B689B011A437B68DB685B08013B8B
:105180001B041A437B681B691B061A437B685B6917
:105190001B0717491343C1F88430164B01221A60CC
:1051A000FBF70CFF786208E0FBF708FF02467B6A1A
:1051B000D31A022B01D903239FE00D4B1B6803F088
:1051C0000063002BF0D0BB6A012B40F095800A4BA6
:1051D00000221A60FBF7F2FE78620FE0FBF7EEFEAA
:1051E00002467B6AD31A022B08D9032385E000BF4D
:1051F000003802406800474270004742414B1B683C
:1052000003F00053B3F1005FE8D07B681B6803F044
:105210000403002B03D07B681B6B002B09D07B6839
:105220001B6803F00803002B2BD07B685B6B002B03
:1052300027D1344BD3F888301B0C03F00303013320
:105240005B003B617B689A697B68DB699B011A4361
:105250003B695B08013B1B041A437B685B6A1B06C6
:1052600028491343C1F88830264BD3F88C3023F4F7
:10527000F8527B68DB6A013B1B0222491343C1F8E9
:105280008C307B681B6803F48073002B1DD07B6817
:105290005B6DB3F1006F18D11A4BD3F888301B0E39
:1052A00003F00F03FB607B689A697B68DB699B01F5
:1052B0001A437B681B6A5B08013B1B041A43FB68AB
:1052C0001B0610491343C1F888300F4B01221A60A6
:1052D000FBF774FE786208E0FBF770FE02467B6A1B
:1052E000D31A022B01D9032307E0064B1B6803F0F6
:1052F0000053B3F1005FEFD1002318463037BD46AD
:1053000080BD00BF0038024070004742F0B587B052
:1053100000AF0023FB6000237B610023BB60002300
:105320007B6000233B619F4B9B6803F00C030C2BBD
:1053300000F2308101A252F823F000BF715300083F
:1053400095550008955500089555000877530008B5
:105350009555000895550008955500087D5300089F
:105360009555000895550008955500088B54000880
:105370008D4B3B6111E18D4B3B610EE1894B5B68CD
:1053800003F03F03FB60874B5B6803F48003002B53
:1053900023D0844B5B689B094FF0000440F2FF115F
:1053A0004FF0000203EA010504EA02067F4A02FB0D
:1053B00006F1002202FB05F20A447C49A5FB01012B
:1053C00053181946FB684FF000041A462346FBF7B2
:1053D000B3FB03460C467B6149E0724B5B689B095B
:1053E0004FF0000440F2FF114FF0000203EA010504
:1053F00004EA0206294632464FF000034FF000044B
:10540000540144EAD1644B0119462246491B62EB20
:1054100006024FF000034FF00004940144EA916447
:105420008B015B1A64EB02044FF000014FF00002A5
:10543000E20042EA5372D9000B4614465B1944EB72
:1054400006044FF000014FF00002A20242EA93521C
:1054500099020B46144618462146FB684FF000049B
:105460001A462346FBF768FB03460C467B614D4B0F
:105470005B681B0C03F0030301335B00BB607A69BC
:10548000BB68B2FBF3F33B6187E0464B5B6803F01C
:105490003F03FB60434B5B6803F48003002B23D086
:1054A000404B5B689B094FF0000440F2FF114FF046
:1054B000000203EA010504EA02063C4A02FB06F187
:1054C000002202FB05F20A443849A5FB01015318EA
:1054D0001946FB684FF000041A462346FBF72CFBE5
:1054E00003460C467B6149E02E4B5B689B094FF0FD
:1054F000000440F2FF114FF0000203EA010504EA44
:105500000206294632464FF000034FF000045401D2
:1055100044EAD1644B0119462246491B62EB06025C
:105520004FF000034FF00004940144EA91648B01B2
:105530005B1A64EB02044FF000014FF00002E2003E
:1055400042EA5372D9000B4614465B1944EB060439
:105550004FF000014FF00002A20242EA935299027A
:105560000B46144618462146FB684FF000041A46C5
:105570002346FBF7E1FA03460C467B61094B5B6867
:105580001B0F03F007037B607A697B68B2FBF3F3C0
:105590003B6102E0044B3B6100BF3B6918461C378E
:1055A000BD46F0BD003802400024F40040787D0183
:1055B00080B586B000AF786000233B617B681B68D4
:1055C00003F00103002B00F08380954B9B6803F0F0
:1055D0000C03042B19D0924B9B6803F00C03082B8F
:1055E00006D18F4B5B6803F48003B3F5800F0CD0BA
:1055F0008B4B9B6803F00C030C2B12D1884B5B6820
:1056000003F48003B3F5800F0BD1854B1B6803F4C3
:105610000033002B5BD07B685B68002B57D10123E4
:1056200016E27B685B68B3F5803F06D17C4B1B6854
:105630007B4A43F4803313601DE07B685B68B3F5FD
:10564000A02F0CD1764B1B68754A43F4802313605E
:10565000734B1B68724A43F4803313600BE0704B4A
:105660001B686F4A23F4803313606D4B1B686C4AD0
:1056700023F4802313607B685B68002B13D0FBF757
:105680009DFC386108E0FBF799FC02463B69D31AA0
:10569000642B01D90323DBE1614B1B6803F4003366
:1056A000002BF0D014E0FBF789FC386108E0FBF731
:1056B00085FC02463B69D31A642B01D90323C7E159
:1056C000574B1B6803F40033002BF0D100E000BF00
:1056D0007B681B6803F00203002B6FD0504B9B6864
:1056E00003F00C03002B17D04D4B9B6803F00C0309
:1056F000082B05D14A4B5B6803F48003002B0BD0C9
:10570000474B9B6803F00C030C2B1CD1444B5B688C
:1057100003F48003002B16D1414B1B6803F00203F6
:10572000002B05D07B68DB68012B01D001238FE1C2
:105730003B4B1B6823F0F8027B681B69DB00384990
:1057400013430B603AE07B68DB68002B20D0354BBD
:1057500001221A60FBF732FC386108E0FBF72EFCEF
:1057600002463B69D31A022B01D9032370E12C4B6B
:105770001B6803F00203002BF0D0294B1B6823F0B9
:10578000F8027B681B69DB00254913430B6015E0B9
:10579000244B00221A60FBF711FC386108E0FBF78C
:1057A0000DFC02463B69D31A022B01D903234FE1BA
:1057B0001B4B1B6803F00203002BF0D17B681B68B6
:1057C00003F00803002B37D07B685B69002B16D0F1
:1057D000154B01221A60FBF7F1FB386108E0FBF77B
:1057E000EDFB02463B69D31A022B01D903232FE1BB
:1057F0000B4B5B6F03F00203002BF0D01CE00A4B55
:1058000000221A60FBF7DAFB38610FE0FBF7D6FBEA
:1058100002463B69D31A022B08D9032318E100BFC3
:105820000038024000004742800E47428A4B5B6FBF
:1058300003F00203002BE9D17B681B6803F004032B
:10584000002B00F097800023FB75834B1B6C03F04B
:105850008053002B0FD10023FB607F4B1B6C7E4AD3
:1058600043F0805313647C4B1B6C03F08053FB604C
:10587000FB680123FB75794B1B6803F48073002BD5
:1058800018D1764B1B68754A43F480731360FBF79D
:1058900095FB386108E0FBF791FB02463B69D31AA0
:1058A000022B01D90323D3E06C4B1B6803F48073F4
:1058B000002BF0D07B689B68012B06D1664B1B6FD9
:1058C000654A43F0010313671CE07B689B68052B66
:1058D0000CD1614B1B6F604A43F0040313675E4BAE
:1058E0001B6F5D4A43F0010313670BE05A4B1B6FBC
:1058F000594A23F001031367574B1B6F564A23F095
:10590000040313677B689B68002B15D0FBF756FBDD
:1059100038610AE0FBF752FB02463B69D31A41F2B9
:105920008832934201D9032392E04B4B1B6F03F063
:105930000203002BEED014E0FBF740FB38610AE0D5
:10594000FBF73CFB02463B69D31A41F28832934293
:1059500001D903237CE0404B1B6F03F00203002BB3
:10596000EED1FB7D012B05D13B4B1B6C3A4A23F05A
:10597000805313647B689B69002B68D0364B9B680F
:1059800003F00C03082B60D07B689B69022B45D188
:10599000334B00221A60FBF711FB386108E0FBF77C
:1059A0000DFB02463B69D31A022B01D903234FE0BA
:1059B000294B1B6803F00073002BF0D17B68DA6978
:1059C0007B681B6A1A437B685B6A9B011A437B688E
:1059D0009B6A5B08013B1B041A437B68DB6A1B065E
:1059E0001A437B681B6B1B071B4913434B601C4B03
:1059F00001221A60FBF7E2FA386108E0FBF7DEFAF1
:105A000002463B69D31A022B01D9032320E0124B33
:105A10001B6803F00073002BF0D018E0104B00223D
:105A20001A60FBF7CBFA386108E0FBF7C7FA0246C9
:105A30003B69D31A022B01D9032309E0064B1B68EB
:105A400003F00073002BF0D101E0012300E00023FC
:105A500018461837BD4680BD00380240007000402F
:105A60006000474280B582B000AF78607B68002B51
:105A700001D1012383E07B685B7FDBB2002B05D182
:105A80007B6800221A77786805F0E6FD7B680222C1
:105A90005A777B681B68CA225A627B681B6853224C
:105AA0005A62786800F003FA0346002B08D07B683E
:105AB0001B68FF225A627B6804225A7701235EE04A
:105AC0007B681B689B687A68126823F4E00323F004
:105AD000400393607B681B6899687B685A687B68A1
